:020000040800F2
:10000000FF4F002059220008A1220008A122000869
:10001000A1220008A1220008A1220008000000007F
:10002000000000000000000000000000A122000805
:10003000A122000800000000A122000865040008B9
:10004000A1220008A1220008A1220008A122000884
:10005000A1220008A1220008A1220008A122000874
:10006000A1220008A1220008A1220008A122000864
:10007000A1220008A1220008A1220008A122000854
:10008000A1220008A1220008A1220008A122000844
:10009000A1220008A1220008A1220008A122000834
:1000A000A1220008A1220008A1220008A122000824
:1000B000A1220008A1220008A1220008A122000814
:1000C000A1220008A1220008A1220008A122000804
:1000D000A1220008A1220008A1220008A1220008F4
:1000E000A1220008A1220008A122000800000000AF
:1000F0000000000000000000000000000000000000
:0C01000000000000000000005FF808F1A3
:10010C0080EA010C1CF0030F37D110F0030C20F027
:10011C00030021F0030150F8042B08BF51F8043BF5
:10012C000ED08CF0030C6FF07F434FEACC0C23FA0B
:10013C000CFC51F8043B42EA0C0243EA0C0300BFEE
:10014C00A2F1013C9A4201BF2CEA020C1CF0803F48
:10015C0050F8042B51F8043BF2D04FEA02604FEAFE
:10016C001222012828BFB0EB036F08BF1B0AF4D082
:10017C0003F0FF03000EC01A704710F0030F0AD0F3
:10018C0010F8012B11F8013B012A28BF9A42F4D038
:10019C00A2EB0300704720B450F8042B01F00305C8
:1001AC0021F0030151F8043B022D27D04ED800BF9B
:1001BC0022F07F45B5EB132FA2F1013C2CEA020C87
:1001CC000DD11CF0803C08BF51F8043B0AD185EAE4
:1001DC000205B5EB036F0CD150F8042BE8E74FEA9E
:1001EC0013235BE03CF07F4C54D10B784FEA126543
:1001FC0054E04FEA126503F0FF034FE04FEA02456B
:10020C00A2F1013C4FEA15452CEA020CB5EB134F59
:10021C0018D11CF0803C08BF51F8043B07D185EA8B
:10022C000205B5EB034F09D150F8042BE6E75FEA62
:10023C000C4C2FD10B884FEA12452FE04FEA0343A9
:10024C004FEA12454FEA134328E000BF02F0FF05C6
:10025C00B5EB136FA2F1013C2CEA020C0DD11CF092
:10026C00803C08BF51F8043B0AD185EA0205B5EB86
:10027C00032F0AD150F8042BE8E74FEA13630DE083
:10028C0012F0FF0F06D051F8043B4FEA122523F071
:10029C007F4303E04FF0000020BC704705F0FF02E5
:1002AC0003F0FF00012828BF904204BF2D0A1B0A4F
:1002BC00F4D0A2EB000020BC704700BF844641EA9A
:1002CC00000313F0030349D1403A23D30B680360B6
:1002DC004B6843608B688360CB68C3600B690361B8
:1002EC004B6943618B698361CB69C3610B6A0362A0
:1002FC004B6A43628B6A8362CB6AC3620B6B036388
:10030C004B6B43638B6B8363CB6BC363403040316C
:10031C00403ADBD230320BD30B6803604B6843603E
:10032C008B688360CB68C36010301031103AF3D205
:10033C000C3205D351F8043B40F8043B043AF9D293
:10034C00043208D0D2071CBF11F8013B00F8013B66
:10035C0001D30B8803806046704700BF082A13D373
:10036C008B07B1D010F00303AED0C3F10403D21A43
:10037C00DB071CBF11F8013B00F8013BA4D331F89B
:10038C00023B20F8023B9FE7043AD9D3013A11F81B
:10039C00013B00F8013BF9D20B7803704B784370AA
:1003AC008B788370604670470348044B834202D0BD
:1003BC00034B03B1184770479400002094000020B1
:1003CC00000000000548064B1B1AD90F01EBA301D6
:1003DC00491002D0034B03B118477047940000201A
:1003EC00940000200000000010B5064C237843B99F
:1003FC00FFF7DAFF044B13B10448AFF3008001237D
:10040C00237010BD9400002000000000403A00084A
:10041C0008B5054B1BB105490548AFF30080BDE895
:10042C000840FFF7CFBF00BF00000000980000207D
:10043C00403A000880B483B000AF786000E000BFA1
:10044C007B685A1E7A60002BF9D100BF00BF0C37B5
:10045C00BD4680BC7047000080B400AF044B1B68E5
:10046C000133034A136000BFBD4680BC704700BF18
:10047C00B000002080B500AF042002F032FE04482A
:10048C0002F029FE02F037FE02F03CFE00BF80BDF8
:10049C003F19010080B500AF4FF4805301220221B7
:1004AC00094801F0F8FE4FF48051074801F02AFF8B
:1004BC000648FFF7BFFF4FF480530122002102488A
:1004CC0001F0E9FE00BF80BD0008014000350C00C2
:1004DC0080B500AF0E4802F00DF840F2023002F089
:1004EC0067F840F2033002F063F84FF4417002F009
:1004FC005FF84FF4407002F05BF840F28E3002F07F
:10050C0057F840F2973002F053F800BF80BD00BF9F
:10051C006C3F000880B500AF4FF42043022203214A
:10052C000E4801F0B8FE4FF48053002203210B4813
:10053C0001F0B1FE4FF4005300220221084801F0F3
:10054C00AAFE4FF48051054801F0DAFE4FF4005139
:10055C00034801F0D5FE00BF80BD00BF000C014078
:10056C000010014080B500AF044B00221A7001F05E
:10057C003FF901F049FC00BF80BD00BFB400002072
:10058C0080B500AF174800F04FFD174800F04CFD48
:10059C00164800F049FD164800F046FD154800F0DD
:1005AC0043FD154800F040FD144800F03DFD144893
:1005BC0000F03AFD134800F037FD134800F034FD0D
:1005CC00124800F031FD124800F02EFD114800F0E9
:1005DC002BFD114800F028FD104800F025FD00BF50
:1005EC0080BD00BF583A0008643A0008783A000809
:1005FC00843A0008903A0008A03A0008B83A00087B
:10060C00C83A0008D83A0008E43A0008F43A00085E
:10061C00083B0008243B00083C3B0008603B0008FA
:10062C0080B584B000AF78607B681B78082B65D0F0
:10063C00082B66DC072B58D0072B62DC062B47D027
:10064C00062B5EDC052B31D0052B5ADC042B24D079
:10065C00042B56DC032B1AD0032B52DC012B02D0BB
:10066C00022B0ED04DE07B680133184601F07EF86A
:10067C00284B00221A7001F0BBF8274800F0D4FC7C
:10068C0043E001F0A9F8254800F0CEFC3DE001F074
:10069C00AFF8234800F0C8FC37E07B685B6E184667
:1006AC0001F0B2F81F4800F0BFFC2EE07B685B6ED7
:1006BC000F2B03D87B685B6EFB7301E00F23FB737E
:1006CC00FB7B184600F041F9174800F0ADFC1CE02C
:1006DC00104B01221A7001F021FA01F099FA00F086
:1006EC00C3F9124800F0A0FC0FE00A4B00221A706C
:1006FC0001F07EF80E4800F097FC06E0FFF740FF93
:10070C0003E00C4800F090FC00BF00BF1037BD4662
:10071C0080BD00BFB4000020703B00087C3B00088B
:10072C00883B0008983B0008A43B0008B43B000839
:10073C00C03B0008CC3B000880B584B000AF03463A
:10074C00FB71244B1B78012B3AD1FB79772B2BD0E7
:10075C00FB79572B28D0FB79612B25D0FB79412BCA
:10076C0022D0FB79732B1FD0FB79532B1CD0FB7938
:10077C00642B19D0FB79442B16D0FB79702B13D03A
:10078C00FB79502B10D0FB79722B0DD0FB79522BAF
:10079C000AD0FB79712B02D0FB79512B06D101F0D9
:1007AC001FFB0346002B01D0012300E00023FB605C
:1007BC00FB68002B09D0FB79184601F07FFA04E0A6
:1007CC00FB79184600F00CFE00E000BF1037BD4668
:1007DC0080BD00BFB400002080B59CB000AFFFF717
:1007EC0077FEFFF797FE00F0F9F8FFF743FEFFF7EF
:1007FC0051FE00F0BDF800F063FA00F085FB1B48D9
:10080C0000F0B8FB00F058FF00F0CAFD01F080F9D1
:10081C0001F0DEFC00F0A2FB00F03CFE0346002BD6
:10082C0007D03B1D184600F03FFE3B1D1846FFF756
:10083C00F7FE0F4B1B68FB660E4B1B78002B03D18E
:10084C00F86E00F059FFE5E7F86E01F0CBF9F86EA1
:10085C0001F0DCFC01F0DCF900F006F901F0CAFA59
:10086C000346002BD6D0FFF77DFED3E745070008E3
:10087C00B0000020B400002080B500AF4FF48051D0
:10088C00024801F03FFD00BF80BD00BF000C0140DD
:10089C0080B500AF4FF48051024801F031FD00BF2C
:1008AC0080BD00BF000C014080B582B000AF034694
:1008BC00FB71FB799BB21946084801F090FE074882
:1008CC0001F092FE00BF064B1B6803F08003002B67
:1008DC00F9D100BF00BF0837BD4680BD00380040CD
:1008EC000838004080B582B000AF03460A46FB7161
:1008FC001346BB71FB791846FFF7D6FFBB79184638
:10090C00FFF7D2FF00BF0837BD4680BD80B584B06D
:10091C0000AF03460A46FB711346BB71FFF7ACFFF1
:10092C000023FB7308E0BA79FB7911461846FFF7F0
:10093C00D9FFFB7B0133FB73FB7B032BF3D9FFF755
:10094C00A7FF00BF1037BD4680BD80B582B000AF99
:10095C000346FB71FB790F2B01D90F23FB71FB793C
:10096C0019460A20FFF7D2FF00BF0837BD4680BDED
:10097C0080B582B000AF00210F20FFF7C7FF002128
:10098C000C20FFF7C3FF00210920FFF7BFFF072151
:10099C000B20FFF7BBFF0320FFF7D7FF0023BB7132
:1009AC0010E00123FB7107E0FB7900211846FFF7EB
:1009BC00ADFFFB790133FB71FB79082BF4D9BB79C3
:1009CC000133BB71BB79022BEBD901210C20FFF752
:1009DC009DFF00BF0837BD4680BD000080B500AF4D
:1009EC000D4801F0F7FD0C4801F022FE38210A48B1
:1009FC0001F013FE0021084801F01FFE064801F02B
:100A0C0007FE054801F0F6FD034801F0FCFD024825
:100A1C0001F0DBFD00BF80BD0038004080B483B026
:100A2C0000AF0023FB7113E00023BB710AE0FA79DD
:100A3C00BB790C49D2000A44134400221A70BB79CA
:100A4C000133BB71BB79072BF1D9FB790133FB71F6
:100A5C00FB79032BE8D900BF00BF0C37BD4680BC27
:100A6C00704700BFB800002080B582B000AF0023F3
:100A7C00FB711CE0FFF700FF03233B600FE0FB79E9
:100A8C000133D8B2FB790E493A68D2000A441344B8
:100A9C001B781946FFF726FF3B68013B3B603B6820
:100AAC00002BECDAFFF7F4FEFB790133FB71FB79D9
:100ABC00072BDFD900BF00BF0837BD4680BD00BF84
:100ACC00B800002080B485B000AF03460A46FB7125
:100ADC001346BB71FB791F2B27D8BB79072B24D866
:100AEC00FB79C3F11F03DB08FB73FB7903F00703EE
:100AFC00BB73BB7BC3F10703012202FA03F37B73C5
:100B0C00BB793B73FA7B3B7B0A49D2000A44134402
:100B1C001878FA7B3B7B797B0143C8B20549D2003C
:100B2C000A44134402461A7000E000BF1437BD4655
:100B3C0080BC7047B800002080B483B000AF7860F0
:100B4C0000E000BF7B685A1E7A60002BF9D100BF11
:100B5C0000BF0C37BD4680BC7047000080B485B028
:100B6C0000AF0346FB718023FB7378E0FA79FB7BC3
:100B7C001340DBB2002B3AD03D4B4FF480721A611C
:100B8C0000BF00BF00BF00BF00BF00BF00BF00BF61
:100B9C0000BF00BF00BF00BF00BF00BF00BF00BF51
:100BAC0000BF00BF00BF00BF00BF00BF00BF00BF41
:100BBC0000BF00BF00BF00BF00BF00BF00BF00BF31
:100BCC0000BF00BF00BF2A4B4FF080721A6100BFFC
:100BDC0000BF00BF00BF00BF00BF00BF00BF00BF11
:100BEC0000BF00BF00BF00BF00BF00BF34E0204B00
:100BFC004FF480721A6100BF00BF00BF00BF00BF7E
:100C0C0000BF00BF00BF00BF00BF00BF184B4FF0BC
:100C1C0080721A6100BF00BF00BF00BF00BF00BFE1
:100C2C0000BF00BF00BF00BF00BF00BF00BF00BFC0
:100C3C0000BF00BF00BF00BF00BF00BF00BF00BFB0
:100C4C0000BF00BF00BF00BF00BF00BF00BF00BFA0
:100C5C0000BF00BF00BF00BFFB7B5B08FB73FB7BCF
:100C6C00002B83D100BF00BF1437BD4680BC70473A
:100C7C00000C014080B483B000AF03460A46FB7100
:100C8C001346BB71FB7903F00103002B08D1FB79F0
:100C9C009BB2DB009AB2BB799BB213449BB209E0C6
:100CAC00FB799BB2DB009AB2BB799BB2D31A9BB295
:100CBC0007339BB218460C37BD4680BC704700000A
:100CCC0080B500AF0E4B9B690D4A43F0080393614E
:100CDC000C4B5B680B4A23F00F035360094B5B68AA
:100CEC00084A43F003035360064B4FF080721A61BD
:100CFC0000BF00F009F800F013F800BF80BD00BF82
:100D0C0000100240000C014080B500AFC022002151
:100D1C00024802F0D1FC00BF80BD00BFD80000200B
:100D2C0080B582B000AF72B600BF00237B6009E0D3
:100D3C000D4A7B6813441B781846FFF70FFF7B683E
:100D4C0001337B607B68BF2BF2D9084B4FF080726C
:100D5C001A6100BF41F27070FFF7EEFE62B600BF81
:100D6C0000BF0837BD4680BDD8000020000C0140F4
:100D7C0090B585B000AF0446084611461A46234686
:100D8C00FB710346BB710B467B7113463B71FB79C0
:100D9C00072B20D8BB79072B1DD8BA79FB791146C4
:100DAC001846FFF767FF0346FB81FA8913465B0081
:100DBC001344BB600A4ABB6813443A791A70BB6887
:100DCC00013307497A79CA54BB680233044997F84E
:100DDC002020CA5400E000BF1437BD4690BD00BFB0
:100DEC00D800002080B594B000AF78600B46FB7043
:100DFC0007F1080240230121786801F07AFC0346D0
:100E0C00BB64BB6C002B17DD0023FB640FE00C4BA9
:100E1C001B68002B08D00A4B1B6807F10801FA6C01
:100E2C000A44127810469847FB6C0133FB64FA6C49
:100E3C00BB6C9A42EBDB00E000BF5037BD4680BD77
:100E4C001C02002080B485B000AFF860B9607A60F5
:100E5C003B60BB685B78222B06D0222B1FDC202B3F
:100E6C0004D0212B13D01AE0012319E03B681B8816
:100E7C00062B01D8002313E07B681A680B4B106813
:100E8C0018609188927999809A71012308E07B68A7
:100E9C00064A1A603B6807221A80012300E00023EF
:100EAC0018461437BD4680BC704700BF00000020B8
:100EBC0080B584B002AF78600B467B80104B0093FA
:100ECC00402302220121786801F0ECFB00230093FF
:100EDC00402302228221786801F0E4FB0023009376
:100EEC00102303228321786801F0DCFB054B7F2261
:100EFC002121786801F0ADFC00BF0837BD4680BDEC
:100F0C00F10D0008510E000880B584B004AF8023A9
:100F1C0002930B4B0193032300930A4B0A4A0B4990
:100F2C000B4801F093FB03460A4A1360094B1B68FC
:100F3C000949184602F012F800BFBD4680BD00BF3B
:100F4C009C01002008000020103D0008683C0008AF
:100F5C00983F000898010020BD0E000880B500AF36
:100F6C00034B1B68184601F099FB00BF80BD00BF06
:100F7C009801002080B483B000AF7860034A7B688E
:100F8C00136000BF0C37BD4680BC70471C020020AC
:100F9C0080B584B000AF78600B467B8019E0114BB4
:100FAC0018687B887A68822101F09CFB0346FB81E0
:100FBC00FB89002B05D10B4B1B68184601F06EFB0F
:100FCC0007E0FB897A6813447B607A88FB89D31A23
:100FDC007B807B88002BE2D100BF00BF1037BD4661
:100FEC0080BD00BF9801002080B584B000AF0346DF
:100FFC00FB71FB79082B02D0FB797F2B0CD10823DA
:10100C003B7320237B730823BB7307F10C03032171
:10101C001846FFF7BDFF04E0FB1D01211846FFF742
:10102C00B7FF1037BD4680BD80B584B000AF786087
:10103C00786802F003FCF86023E0FB68402B02D8D0
:10104C00FB687B8101E040237B81124B18687B8914
:10105C007A68822101F046FB03463B813B89002BD9
:10106C0004D10C4B1B68184601F018FB3B89002B74
:10107C00EBD03B897A6813447B603B89FA68D31ABE
:10108C00FB60FB68002BD8D100BF00BF1037BD46FA
:10109C0080BD00BF9801002080B487B000AF78609D
:1010AC00396000237B6100233B617B681B78002B3C
:1010BC0016D1002320E0FB7B2F2B02D9FB7B392B95
:1010CC0001D9002318E07A6913469B0013445B0096
:1010DC001A46FB7B1344303B7B613B6901333B611C
:1010EC007A683B6913441B78FB73FB7B002BE2D1C2
:1010FC003B687A691A60012318461C37BD4680BCD0
:10110C007047000080B400AF064B09221A70054BE3
:10111C0000225A70034B00225A6600BFBD4680BCA9
:10112C00704700BFA802002080B5A0B000AF786067
:10113C00924B00221A70914B00225A708F4B002256
:10114C005A668F497868FEF7DBFF0346002B03D104
:10115C008A4B02221A700EE18A497868FEF7D0FF9A
:10116C000346002B03D1854B03221A7003E18649F9
:10117C007868FEF7C5FF0346002B03D17F4B08228E
:10118C001A70F8E081497868FEF7BAFF0346002B25
:10119C0003D17A4B06221A70EDE07D497868FEF790
:1011AC00AFFF0346002B03D1744B07221A70E2E009
:1011BC0006227849786802F0C3FA0346002B34D132
:1011CC007B6806337B672221786F02F0F5FA38676B
:1011DC003B6F002B02D1FFF795FFCCE03A6F7B6F92
:1011EC00D31AFB67FB6F5F2B01D95F23FB670023CF
:1011FC00BB670CE07A6FBB6F134419785F4ABB6F07
:10120C00134401330A461A70BB6F0133BB67BA6FC4
:10121C00FB6F9A42EED3594AFB6F13440133002201
:10122C001A70564B01221A70A5E006225A497868AA
:10123C0002F086FA0346002B49D17B6806337B67A4
:10124C002221786F02F0B8FA38673B6F002B02D17D
:10125C00FFF758FF8FE03A6F7B6FD31AFB67FB6F7A
:10126C00002B02D0FB6F5F2B02D9FFF74BFF82E004
:10127C000023BB670CE07A6FBB6F1344197807F13E
:10128C001002BB6F13440A461A70BB6F0133BB6765
:10129C00BA6FFB6F9A42EED307F11002FB6F134447
:1012AC0000221A7007F10C0207F1100311461846C0
:1012BC00FFF7F2FE0346002B02D1FFF723FF5AE0A3
:1012CC002E4B04221A70FB682C4A536653E00A22F8
:1012DC003249786802F034FA0346002B49D17B6816
:1012EC000A337B672221786F02F066FA38673B6F0E
:1012FC00002B02D1FFF706FF3DE03A6F7B6FD31A4C
:10130C00FB67FB6F002B02D0FB6F5F2B02D9FFF743
:10131C00F9FE30E00023BB670CE07A6FBB6F13441F
:10132C00197807F11002BB6F13440A461A70BB6F91
:10133C000133BB67BA6FFB6F9A42EED307F1100211
:10134C00FB6F134400221A7007F10C0207F1100313
:10135C0011461846FFF7A0FE0346002B02D1FFF7FB
:10136C00D1FE08E0054B05221A70FB68034A536650
:10137C0001E0FFF7C7FE8037BD4680BDA802002004
:10138C00183C0008203C0008283C0008303C0008B1
:10139C003C3C0008483C0008503C0008583C000805
:1013AC0080B400AF0A4B00221A600A4B00221A606C
:1013BC00094B00221A70094B00221A70074B0022AD
:1013CC005A70064B00225A6600BFBD4680BC70475F
:1013DC00A0020020A402002020020020A80200206D
:1013EC0080B582B000AF0346FB71FB790D2B1BD18E
:1013FC0002212448FFF7CCFD234B1B687F2B05D81B
:10140C00214B1B68214A0021D15403E01F4B0022C1
:10141C0083F87F201D48FFF787FE1D4B01221A60C1
:10142C00194B00221A602AE0FB790A2B24D0FB7995
:10143C00082B02D0FB797F2B0DD1134B1B68002B93
:10144C001CD0114B1B68013B0F4A1360FB791846EB
:10145C00FFF7CAFD12E00C4B1B687E2B0FD80A4B12
:10146C001B685A1C08490A600849FA79CA54FB7966
:10147C001846FFF7B9FD02E000BF00E000BF0837D7
:10148C00BD4680BD643C0008A00200202002002064
:10149C00A402002080B400AF024B1B681846BD4666
:1014AC0080BC7047A402002080B582B000AF786089
:1014BC007B68002B14D07B680B4A184611466823B6
:1014CC001A46FEF7FBFE094B00221A60064B00225F
:1014DC001A70054B00225A70034B00225A6600E02A
:1014EC0000BF0837BD4680BDA8020020A402002022
:1014FC0080B485B000AF0346FB71FB79FB73FB7BBB
:10150C001F2B02D9FB7B7E2B01D92023FB73FB7B8A
:10151C00A3F1200213469B001344034A13441846BC
:10152C001437BD4680BC7047203D000880B485B0A0
:10153C0000AF78600023FB6012E07A68FB6813440C
:10154C001B78FB72FB7A1F2B02D9FB7A7E2B04D9FA
:10155C007A68FB68134420221A70FB680133FB6025
:10156C007A68FB6813441B78002BE6D100BF00BFE0
:10157C001437BD4680BC704780B584B000AF0023E3
:10158C00FB810023BB812BE0BB89234AD35C18462B
:10159C00FFF7AEFF78600023FB7210E0FB89B3F518
:1015AC00407F09D2FB7A7A681A44FB89591CF9816D
:1015BC0019461278194B5A54FB7A0133FB72FB7A99
:1015CC00042BEBD9FB89B3F5407F06D2FB895A1C5F
:1015DC00FA811A46114B00219954BB890133BB8106
:1015EC00BB890D4AD35C002BCED1FB89002B06D1D5
:1015FC00FB895A1CFA811A46084B00219954084A57
:10160C00FB891380064B1B8820339AB2054B1A803A
:10161C0000BF1037BD4680BD18000020100300200D
:10162C00100600201406002080B586B000AF0346DB
:10163C00FB80FFF7F3F90023FB8231E0FA8AFB8889
:10164C001344203B3B613B69002B25DB184B1B886B
:10165C001A463B6993421FDA164A3B6913441B78BE
:10166C00FB7300237B7513E07B7D012202FA03F3ED
:10167C00DAB2FB7B1340DBB2002B06D0FB8ADBB269
:10168C007A7D11461846FFF71DFA7B7D01337B7579
:10169C007B7D072BE8D900E000BFFB8A0133FB827E
:1016AC00FB8A1F2BCAD900BF00BF1837BD4680BDAF
:1016BC00100600201003002080B500AF094B5A2201
:1016CC001A60094B00221A60084B00221A80084B42
:1016DC0000221A600748FFF729FFFFF74DFF00BFF4
:1016EC0080BD00BF140000201C0600201206002044
:1016FC00180600201800002080B582B000AF78607A
:10170C00154B1B68002B21D1144B1B687A68D21A1D
:10171C00134B1B689A421BD3104A7B681360114B06
:10172C001B881846FFF780FFFFF79EF90D4B1B88AF
:10173C0001339AB20B4B1A800A4B1A880A4B1B883E
:10174C009A4206D3074B00221A8002E000BF00E049
:10175C0000BF0837BD4680BD1C06002018060020BF
:10176C0014000020120600201406002080B584B05E
:10177C0000AF78600023FB600BE07A68FB681344D1
:10178C001978124AFB6813440A461A70FB68013335
:10179C00FB60FB685E2B05D87A68FB6813441B78EA
:1017AC00002BEAD1094AFB68134400221A7007483F
:1017BC00FFF7BCFEFFF7E0FE054B00221A80054B3D
:1017CC0000221A6000BF1037BD4680BD18000020F3
:1017DC00120600201806002080B400AF034B012233
:1017EC001A6000BFBD4680BC704700BF1C060020BD
:1017FC0080B400AF034B00221A6000BFBD4680BC12
:10180C00704700BF1C06002080B483B000AF786026
:10181C007B68132B01D814237B607B68B3F57A7F2C
:10182C0002D94FF47A737B60034A7B68136000BF64
:10183C000C37BD4680BC70471400002080B400AF4C
:10184C00074B1B68074A03FB02F2074B1344044A7D
:10185C001360034B1B681846BD4680BC704700BF25
:10186C007C0000200D6619005FF36E3C80B485B0DF
:10187C0000AF0346FB710B46BB711346BB800023C4
:10188C00FB8110E0FB890D4AD35CFA799A4207D1AF
:10189C00FB890B4AD35CBA799A4201D1012307E048
:1018AC00FB890133FB81FA89BB889A42EAD3002376
:1018BC0018461437BD4680BC704700BF2006002078
:1018CC002007002080B582B000AF00237B60184B4E
:1018DC001B88FF2B03D9174B01221A6024E0FFF75A
:1018EC00ADFF0346DBB203F01F03FB70FFF7A6FF4F
:1018FC000346DBB203F00703BB707B6801337B60EC
:10190C000B4B1A88B978FB781846FFF7AFFF0346E4
:10191C00002B03D07B68B3F57A7FE0D3064AFB78C3
:10192C001370064ABB7813700837BD4680BD00BFE4
:10193C00200800202808002022080020230800206E
:10194C0080B483B000AF03460A46FB711346BB71EB
:10195C00FB79002B02D1BB79012B11D0FB79012B28
:10196C0002D1BB79002B0BD0FB79022B02D1BB79B6
:10197C00032B05D0FB79032B04D1BB79022B01D1AE
:10198C00012300E0002318460C37BD4680BC70478D
:10199C0080B584B000AF554B1B68002B40F0A28083
:1019AC00534B1B68002B40F09D80524B1A78524BC6
:1019BC001A70524B1B78FB73514B1B78BB734E4BFD
:1019CC001B78022B1DD0022B26DC002B02D0012B06
:1019DC000BD021E0BB7B002B03D1444B01221A60BE
:1019EC0081E0BB7B013BBB7322E0BB7B0133072B4C
:1019FC0003D93E4B01221A6075E0BB7B0133BB73EC
:101A0C0016E0FB7B002B03D1384B01221A606AE0F5
:101A1C00FB7B013BFB730BE0FB7B01331F2B03D9DF
:101A2C00324B01221A605EE0FB7B0133FB7300BF7B
:101A3C00344B1B78FA7B9A4207D1334B1B78BA7B19
:101A4C009A4202D10123BB6001E00023BB602F4B03
:101A5C001B88FB80BB68002B05D1FB88002B02D0B8
:101A6C00FB88013BFB80FA88B97BFB7B1846FFF7B0
:101A7C00FDFE0346002B03D01C4B01221A6032E002
:101A8C00BB68002B09D0214B1B88FF2B05D81F4BA3
:101A9C001B8801339AB21D4B1A801C4B1B88013BCF
:101AAC00BB8010E0BB885A1EBB881449895C134A62
:101ABC00D154BB885A1EBB881149895C104AD15439
:101ACC00BB88013BBB80BB88002BEBD10B4AFB7B5B
:101ADC0013700B4ABB7B1370BB68002B03D0FFF752
:101AEC00F1FE00E000BF1037BD4680BD2808002085
:101AFC002408002079000020780000202006002017
:101B0C0020070020220800202308002020080020A5
:101B1C0080B500AF00F002F800BF80BD80B582B088
:101B2C0000AF0A23FB710323BB71224B04221A80E2
:101B3C00214AFB791370214ABB791370FB79013B65
:101B4C00DAB21D4B5A701D4ABB795370FB79023BBC
:101B5C00DAB2194B9A70194ABB799370FB79033B33
:101B6C00DAB2154BDA70154ABB79D370144B0322D9
:101B7C001A70144B03221A70134B00221A60134B69
:101B8C0000221A60124B00221A60124B00221A60BB
:101B9C00114B00221A60114B01221A60104B1B686A
:101BAC0083F0A5330E4A1360FFF78CFE00BF083795
:101BBC00BD4680BD20080020200600202007002004
:101BCC00780000207900002024080020280800203C
:101BDC00380800202C080020300800203408002091
:101BEC007C00002080B582B000AF7860074B1B688A
:101BFC007A68D31AB32B04D9044A7B681360FFF7B5
:101C0C00C7FE00BF0837BD4680BD00BF2C080020B2
:101C1C0080B582B000AFFEF701FF1F4B1B68002B95
:101C2C0017D01E4B1A681E4B1B68D31AF92B0CD9F4
:101C3C001A4B1B681A4A13601A4B1B68002B01D1F4
:101C4C00012300E00023174A1360164B1B68002B7E
:101C5C001DD0154B1B78154A127811461846FEF705
:101C6C0031FF0023FB800CE0FB88114AD25CFB881F
:101C7C001049CB5C19461046FEF724FFFB88013354
:101C8C00FB800D4B1B88FA889A42EDD300E000BF15
:101C9C000837BD4680BD00BF280800202C08002056
:101CAC0030080020340800202208002023080020DF
:101CBC0020060020200700202008002080B582B0DC
:101CCC0000AF0346FB71FB79702B02D0FB79502BD4
:101CDC0009D13E4B1B68002B01D1012300E00023EE
:101CEC003A4A13606FE0FB79722B02D0FB79522BCE
:101CFC0002D1FFF713FF66E0FB79712B02D0FB7961
:101D0C00512B07D1314B1B68002B03D0304B0122D8
:101D1C001A6058E02F4B1B68002B4BD1FB79772BAB
:101D2C0002D0FB79572B0CD12B4B1B78002118467A
:101D3C00FFF706FE0346002B3ED1284B00221A70FB
:101D4C003AE0FB79732B02D0FB79532B0CD1224B4D
:101D5C001B7801211846FFF7F3FD0346002B2DD10C
:101D6C001E4B01221A7029E0FB79612B02D0FB7902
:101D7C00412B0CD1184B1B7802211846FFF7E0FDC4
:101D8C000346002B1CD1154B02221A7018E0FB796C
:101D9C00642B02D0FB79442B15D10F4B1B780321FC
:101DAC001846FFF7CDFD0346002B0BD10B4B03223E
:101DBC001A7007E000BF06E000BF04E000BF02E0BD
:101DCC0000BF00E000BF0837BD4680BD24080020DE
:101DDC003808002028080020780000207900002016
:101DEC0080B400AF024B1B681846BD4680BC7047E0
:101DFC002408002080B400AF024B1B681846BD4677
:101E0C0080BC70473808002080B400AF034B002220
:101E1C001A6000BFBD4680BC704700BF3808002068
:101E2C0080B400AF084B1B68084A03FB02F2084B56
:101E3C001344054A1360044B1B681B0EDBB2184697
:101E4C00BD4680BC704700BF800000200D661900A5
:101E5C005FF36E3C80B483B000AF03460A46FB715F
:101E6C001346BB71FB79BA7902FB03F31A46054B97
:101E7C00A3FB0223DB09DBB218460C37BD4680BC42
:101E8C00704700BF8180808080B485B000AF03466E
:101E9C003A60FB710B46BB71FB79012B19D8BB79EE
:101EAC00272B18D9BB79B42B17D88C23FB73BB7990
:101EBC009BB2283B9BB2DA00FB7BB2FBF3F3BB7308
:101ECC003B681B78BA7B9A4208D93B68BA7B1A707C
:101EDC0004E000BF02E000BF00E000BF1437BD46C5
:101EEC0080BC704780B487B000AFB9607A603B604B
:101EFC000346FB73FB7B542B0DD8FB7B1A4652001D
:101F0C001344DAB2BB681A707B6800221A703B6803
:101F1C0000221A702BE0FB7BA92B10D8FB7B553BC6
:101F2C00FB75BB68FF221A70FB7D1A4652001344E6
:101F3C00DAB27B681A703B6800221A7017E0FB7BE0
:101F4C005633FB75BB68FF221A70FA7D1346DB0013
:101F5C009B1ADB009B1A084AA2FB03239B09DBB2EA
:101F6C00383BDAB27B681A703B6800221A7000BFEB
:101F7C001C37BD4680BC7047C1C0C0C080B582B0A4
:101F8C0000AF0023FB711DE0FFF74AFF0346114A27
:101F9C00A2FB031252098D2101FB02F29B1ADBB248
:101FAC002833BB71FB790C49BA79CA54FFF738FF57
:101FBC000346182B03D8FB79074AFF21D154FB7930
:101FCC000133FB71FB79072BDED900BF00BF08374B
:101FDC00BD4680BD1F6B193A7C080020B0B582B09D
:101FEC0000AFFFF7CBFF0123BB7184E00023FB7133
:101FFC007BE00023BB800023FB70BB795A1EFB796E
:10200C004849D2000A4413441B781A46BB8813442F
:10201C00BB80FB780133FB70FB79002B0FD0BB79B5
:10202C005A1EFB79013B3F49D2000A4413441B78EA
:10203C001A46BB881344BB80FB780133FB70FB79D9
:10204C000133072B0FD8BB795A1EFB790133354965
:10205C00D2000A4413441B781A46BB881344BB8035
:10206C00FB780133FB70BB79012B0ED9BB799A1E1F
:10207C00FB792C49D2000A4413441B781A46BB88BE
:10208C001344BB80FB780133FB70BA88FB7892FB5E
:10209C00F3F3BB70BB791A4652001344DCB2FFF762
:1020AC00BFFE034603F00703DBB22344DBB20A3363
:1020BC007B70BA787B789A420CD9BA79FB79B8786C
:1020CC007978411AC8B21849D2000A44134402461E
:1020DC001A7007E0BA79FB791349D2000A44134409
:1020EC0000221A70FB790133FB71FB79072B80D925
:1020FC00BB790133BB71BB79072B7FF677AF094AEC
:10210C00094B14461D460FCD0FC40FCD0FC40FCD78
:10211C000FC495E80F0084E80F0000BF0837BD46D8
:10212C00B0BD00BF3C0800207C080020B0B584B0D6
:10213C0002AFFEF7E9FD0023BB713EE00023FB710B
:10214C0035E0BA79FB792149D2000A441344187856
:10215C00FB1C3A1D791DFFF7C5FEBA79FB791B49AB
:10216C00D2000A4413441978FA1CBB791846FFF7BD
:10217C008BFE7B7908211846FFF76CFE03461C4644
:10218C003B7908211846FFF765FE03461D46FB7890
:10219C0008211846FFF75EFE0346B979F8790093DB
:1021AC002B462246FEF7E4FDFB790133FB71FB79EC
:1021BC00072BC6D9BB790133BB71BB79072BBDD9B2
:1021CC0000BF00BF0837BD46B0BD00BF3C080020B3
:1021DC0080B500AF40220021094801F06DFA402281
:1021EC000021084801F068FA074B00221A60FFF73B
:1021FC00F5FEFFF79BFFFEF793FD00BF80BD00BF10
:10220C003C0800207C080020BC08002080B582B06F
:10221C0000AF7860094B1B687A68D31A272B09D951
:10222C00064A7B681360FFF7D9FEFFF77FFFFEF7C6
:10223C0077FD00E000BF0837BD4680BDBC0800201C
:10224C0080B400AF00BFBD4680BC7047FFF7F8FFFD
:10225C000B480C490C4A002302E0D458C4500433F8
:10226C00C4188C42F9D3094A094C002301E01360CD
:10227C000432A242FBD301F0B5FAFEF7ADFA704777
:10228C000000002094000020E43F0008940000208F
:10229C00740B0020FEE72DE9F04300264FF00F0EE3
:1022AC0098460368476848FA06F414F0010F06F1E3
:1022BC00010C1DD0072E93BF9946B946A6F1080410
:1022CC00B4008ABFA400A4B2A4B20EFA04F529EAA1
:1022DC000509A51C02FA05F501FA04F42C43072E96
:1022EC0044EA090405D8234666463C462746DAE705
:1022FC003C466646102EF9D103604460BDE8F0837D
:10230C00016170470904016170470000062824D858
:10231C00DFE800F004090E13181D2000104B18689C
:10232C00C0F3406070470E4B1868C0F3C060704734
:10233C000B4B1868C0F340707047094B1868C0F31A
:10234C0040407047064B1868C0F340007047044B80
:10235C00186AF9E7024B586AF6E70020704700BF8D
:10236C0000100240024608B51046FFF7CFFF0028C8
:10237C00FAD008BD06282AD8DFE800F0040A0F14AA
:10238C00191E2400124A136843F0807313607047BF
:10239C000F4A136843F08063F8E70D4A136843F063
:1023AC008053F3E70A4A136843F48033EEE7084A94
:1023BC00136843F00103E9E7054A136A43F001038C
:1023CC0013627047024A536A43F001035362704729
:1023DC0000100240034A536823F003030343536085
:1023EC00704700BF00100240034A536823F4701377
:1023FC0043EA80435360704700100240034AD36A9B
:10240C0023F4706343EA0023D36270470010024048
:10241C00034AD36A23F4704343EA0033D362704710
:10242C0000100240034A536823F4803343EA00430C
:10243C005360704700100240034A536823F4003382
:10244C0043EA40435360704700100240034A53680C
:10245C0023F4404343EA803353607047001002403A
:10246C00034A536823F4605343EAC0235360704714
:10247C0000100240034A536823F4E06343EA00234C
:10248C005360704700100240034A536823F0F00376
:10249C0043EA00135360704700100240044B5A6823
:1024AC0018B142F480025A60704722F48002FAE7B5
:1024BC0000100240034AD36A23F00F030343D36294
:1024CC00704700BF00100240034AD36A23F0F003A8
:1024DC0043EA0013D362704700100240044BDA6ADF
:1024EC0018B142F48032DA62704722F48032FAE793
:1024FC000010024010B504464378012B0CBF03209A
:10250C000420FFF737FFFFF72DFFA078FFF7BCFF84
:10251C00E078FFF7AFFF2079FFF7A2FF6079FFF7B4
:10252C0095FF207BFFF7BAFFA07900F0F3FD207830
:10253C00FFF75AFF6078FFF775FFE07901282DD976
:10254C00FFF7B8FF207A08B1FFF7C8FF607A08B12F
:10255C00FFF7BAFFA07A30B1FFF750FF0120FFF769
:10256C0009FFFFF7FFFEE07A30B1FFF751FF0220C1
:10257C00FFF700FFFFF7F6FE0020FFF7FBFEFFF76B
:10258C00F1FE0220FFF726FF2269064B1A606269F2
:10259C00054B1A60A269054B1A6010BDFFF74CFF82
:1025AC00D0E700BF840000208C00002088000020B1
:1025BC000122430903F1804303F50433196800F049
:1025CC001F0082400A431A607047036843F04003BF
:1025DC0003607047036823F040030360704783680F
:1025EC009B07FCD5C16070478368DB07FCD5C068CE
:1025FC0080B27047036843F400730360436823F0B0
:10260C00040343607047036843F4807303607047AE
:10261C00036823F0800303607047072907D8036819
:10262C0023F038031B041B0C43EAC10303607047FF
:10263C00036843F004030360704703299FBF0368DA
:10264C0023F003030B43036070470000F8B51D46ED
:10265C000368164604460F469847069B079A036183
:10266C0000234261BDF82020C0E900760283084AAD
:10267C00C0E93C33C0F88020064AC0E93633C26753
:10268C00054AC0E93833C0F8EC40C5608267F8BD34
:10269C008B28000837290008BB290008D0F8EC303B
:1026AC005B6A184710B4D0F8EC40A468A44610BC80
:1026BC00604737B50025044603684583DB792A4615
:1026CC0029460095FFF7EEFFD4F8EC3029465B68FD
:1026DC0020469847236A1BB103B0BDE83040184729
:1026EC0003B030BD10B4D0F8EC40E469A44610BC83
:1026FC00604710B4D0F8EC40246AA44610BC604784
:10270C00D0F8EC301B691847D0F8EC309B691847AF
:10271C00D0F8EC305B69184710B50268B0F840305F
:10272C00D17904468B42C26B11D90B460021FFF7BD
:10273C00D9FF022384F830302368DA79E36B134431
:10274C00E363B4F840309B1AA4F8403010BD00216C
:10275C00FFF7C8FF94F84830C3F1030384F8303016
:10276C00002384F84830A4F84030E363EEE72DE909
:10277C00F74F04460E46054600F1200900F13C07D0
:10278C0000F14408D5F858B0BBF1000F0AD095F809
:10279C005D10337895F85C200B409A4210D00835C8
:1027AC004D45EFD1A36804F13C07B3B93A46314625
:1027BC00204604F1400303B0BDE8F04F00F03CBCF0
:1027CC003A4631462046CDF8008004F14003D84704
:1027DC000128E4D803B0BDE8F08FE56C002DE5D0FE
:1027EC00317801F07F014029E0D13A46314620464C
:1027FC0004F14003A8470128D8D8EBE710B5012213
:10280C0000210446FFF77CFF002384F8303010BD14
:10281C0070B50368B0F84020448FDB79A41A9C4251
:10282C00A8BF1C46C16BA6B20A443346002105461C
:10283C00FFF75FFF864205D02846FFF7DFFF4FF01A
:10284C00FF3070BDB5F84030A0B21E44A5F8406012
:10285C00F7E770B5002400F1580656F834502DB146
:10286C000134042CF9D14FF0FF3070BD00EBC404DF
:10287C0084F85C10284684F85D20A365F5E738B52C
:10288C0000250446012229464564FFF741FF638F6A
:10289C009AB272B962692046E263A4F8403004F13E
:1028AC003401FFF764FFF0B92046BDE83840FFF76C
:1028BC00A5BF94F934100029ECDB238B9342F3D39E
:1028CC006369A4F84050E36323682946DB7920460A
:1028DC0093422CBF0623052384F830302A46BDE8EA
:1028EC003840FFF715BF638FB3B1B4F84020934263
:1028FC0010D942B12368DB79B2FBF3F103FB11224F
:10290C00B2FA82F25209204684F84820BDE83840D9
:10291C00FFF702BF0022F6E71A4619462046FFF7DA
:10292C00E1FE042384F8303038BD10B590F8303017
:10293C000446062B13D0072B28D0052B22D1FFF7EA
:10294C0067FF01300AD0B4F84020638F9B1A2268CD
:10295C00D279934202DC062384F8303010BDFFF7A5
:10296C0057FF0130FAD0204604F13401FFF7FFFE87
:10297C0038B1002320461A461946FFF7B3FE04234C
:10298C00EAE72046BDE81040FFF738BF00231A469F
:10299C001946FFF7AEFE002384F83030636C1BB190
:1029AC00204604F13401984700236364D6E710B540
:1029BC0090F830300446032B07D0042B0ED0022B9A
:1029CC0023D1BDE81040FFF7A7BE0723002280F8F3
:1029DC0030301146BDE81040FFF79ABE436C13B17E
:1029EC0000F13401984794F8343053B994F83530E9
:1029FC00052B06D1E18ED4F8EC3020465B68C9B2C9
:102A0C009847002384F8303010BDBDE81040FFF724
:102A1C00F5BE08B50B7873B949887F2909D8D0F869
:102A2C00EC30C9B2817693F834200AB15B689847D0
:102A3C000123184608BD0023FBE7F8B50D4649886D
:102A4C00044679B103680D26587C0023984201D8BE
:102A5C000020F8BD626806FB032252798A4203D03B
:102A6C000133F3E74FF0FF330133DBB2E3764BB9BD
:102A7C00D4F8EC302046DB689847D4F8D8309BB9B2
:102A8C000120E6E70D216268013B01FB03220023D4
:102A9C00184611799942EBD9D2F809101E017158D8
:102AAC0001B108700133F4E7002304F1D406A365E7
:102ABC002366A366236704F1E40756F8043F13B1B9
:102ACC00204669889847BE42F7D1D9E71988012971
:102ADC0084BF01211980C37E11682BB142680D207F
:102AEC00013B00FB03235B7901200B7070470D2227
:102AFC0070B51D46C37E4468013B02FB03448A88C3
:102B0C002379934219D9D4F80930160103EB021238
:102B1C004C881279A24210D99A5952B11470D0F83B
:102B2C00E83013B14A8889889847002301202B800C
:102B3C0070BD002CF3D01046FAE70020F8E730B552
:102B4C000D25C47E4068013C05FB04008D8804798A
:102B5C00A5420CD201241C808B88D0F809001B01E3
:102B6C001B5803B11B7801201268137030BD002074
:102B7C00FCE719880120022984BF02211980002357
:102B8C0011680B7012685370704710B514461A8890
:102B9C00022A84BF02221A808988C9B2FFF7B4FDC9
:102BAC00003818BF01200022236818702368012008
:102BBC005A7010BD08B589880122C9B2FFF7A0FD73
:102BCC00012008BD08B589880022C9B2FFF798FD1D
:102BDC00012008BD2DE9F04F9B464B881746DDB20E
:102BEC001B0A032B89B000F04B8105D8012B28D090
:102BFC00022B34D000202FE00F2BFBD18468002C4B
:102C0C00F8D0002DF6D1D0F81490BBF80060C2F8C3
:102C1C00009094F800802146B04528BFB046484645
:102C2C004246FDF74BFB2378A6EB0806B6B20193A0
:102C3C002279EBB29A4200F2DA80019BA9F80230B9
:102C4C00E3E0036813601B78BBF80020934228BFB5
:102C5C001346ABF80030012009B0BDE8F08F436992
:102C6C004768136003930D235D43BBF800407E5D02
:102C7C007B19A64228BF264619463246039805936F
:102C8C00FDF71CFB0022039BA41B7D5D3344A4B207
:102C9C000192059A1179BDF80420914204D8039B46
:102CAC005D80ABF80060D6E7019A0199120106929B
:102CBC00059AD2F8092002EB0112D2F80880B8F17B
:102CCC00000F11D098F800701846A74228BF27466D
:102CDC0041463A46FDF7F2FA98F80020E41B2A44E4
:102CEC00C319A4B23E4495B200220492059A0699E7
:102CFC00D2F809200A441079BDF81010884202D885
:102D0C00019A0132C4E715200499D2F80C8000FB1B
:102D1C0001F718F8079008EB0702A14528BFA14658
:102D2C001846029208EB07014A46FDF7C7FA18F855
:102D3C000720A4EB09042A4495B2029A00EB09037C
:102D4C00D2F80D10A4B24E44A1B1D2F811701846AD
:102D5C00A742A8BF27461FFA87F84246FDF7AEFAEE
:102D6C00029AE41BD2F8112000EB08032A44A4B207
:102D7C003E4495B20027029A1179BAB2914202D818
:102D8C00049A0132B1E7029AC7EB0719D2F809A0ED
:102D9C0018461AF809200AEB0908A24228BF224655
:102DAC0041460792FDF78AFA079AD8F80710A41A39
:102DBC00831816441AF80920A4B22A4495B2A1B17A
:102DCC00D8F80B901846A145A8BFA1461FFA89FA5E
:102DDC005246FDF773FAD8F80B20A4EB09042A44E9
:102DEC0000EB0A03A4B24E4495B20137C3E7D4F802
:102DFC00053002936B010393029B03EB451A9AF87F
:102E0C000230052B08D04FF00008B8F1000018BFB5
:102E1C000120ABF800801FE7142E374628BF14277B
:102E2C0009EB080318463A4651460393FDF746FA58
:102E3C00102243490AF1040000F0FCFB039BD8B9B3
:102E4C00F21B92B2082A28BF08220392D819DAF88A
:102E5C001410FDF733FA039A1744BFB267B1029B03
:102E6C006A019B5C019AF61B1A4447440192B6B264
:102E7C001FFA87F80135DBE6002EC4D13746EEE7A2
:102E8C0046697DB90923B3700423F3703370BBF822
:102E9C000030042B28BF0423ABF8003003237370DD
:102EAC003E60D8E6D0F8F030AB421CD1D0F8F440FC
:102EBC00204600F0C3FC01304000C0B23070BBF8BB
:102ECC000030834228BF0346ABF800300023BBF828
:102EDC0000205208013A9A42E0DDE15C06EB430225
:102EEC0051800133F3E7C468002C3FF483AE0369CF
:102EFC00013DAB427FF77EAE40F209438A889A428D
:102F0C007FF478AE54F82540204600F097FC013051
:102F1C004000C0B23070BBF80030834228BF03467B
:102F2C00ABF800300023BBF800205208013A9A425B
:102F3C00B4DDE15C06EB430251800133F3E700BFE3
:102F4C00883F000819880120022984BF02211980BA
:102F5C00002311680B70126853707047002310B572
:102F6C0000F1D40252F8044F3CB18C4208D001332A
:102F7C00042BF7D14FF0FF3010BD363340F823103F
:102F8C000020F9E730B44C78092C12D8DFE804F0B3
:102F9C0005111111110D0F11090B074CA44630BC72
:102FAC006047064CFAE7064CF8E7064CF6E7064C89
:102FBC00F4E7002030BC70477F2B0008D92A0008AA
:102FCC00472A00081F2A0008E12B000810B44C788F
:102FDC000A2C06D00B2C06D03CB9054CA44610BCD0
:102FEC006047044CFAE7044CF8E7002010BC70472B
:102FFC00512F00084B2B0008FB2A000810B44C780A
:10300C00012C05D0032C08D074B110BC00207047E3
:10301C004C88002CF9D1054C03E04C88002CF4D1E1
:10302C00034CA44610BC6047024CFAE7D12B0008B5
:10303C00C12B0008972B000810B40C7814F0600F0B
:10304C000FD104F01F04012C05D0022C06D044B97A
:10305C0010BCFFF797BF10BCFFF7B8BF10BCFFF751
:10306C00CDBF002010BC704708B540F29730FFF779
:10307C009FFA0022064B0748C3F8402CC3F8502C8B
:10308C00C3F8442C4FF41C42C3F8402C08BD00BFBD
:10309C0000500040C008002001325208023900EBF9
:1030AC008202904200D1704731F8023F40F8043B55
:1030BC00F7E7002330B55408A34206D3D30744BF27
:1030CC0031F8243000F8143030BD31F8235020F89A
:1030DC0013500133F0E74FF0E02320F07F405861AC
:1030EC0070474FF0E022136900F0040023F0040352
:1030FC000343136170474FF0E022136943F002035E
:10310C00136170474FF0E022136943F00103136120
:10311C0070470000034A136823F00703034313604E
:10312C00704700BF00200240024B41F08001C3F801
:10313C004C1C7047005000403E2A14D9013AC2F38F
:10314C00441302F4787202F1200043F02003094A80
:10315C009B02D2F8502C9BB292B202EBC1020649F0
:10316C0041F8123070470132530822F0010290B23C
:10317C00EDE700BF005000400C6000402DE9F3412A
:10318C0005464FF0C060424C01F07F08CDE900408D
:10319C004FEA880404F1804404F5B844206802AE78
:1031AC0020F4E04020F07F0040EA080080B220606C
:1031BC00206806EB420232F8082C20F4EC4020F098
:1031CC007000104349B280B20029089F20602BDBAD
:1031DC00B8F1000F28D02F4A2F49D2F8502CAE8BC3
:1031EC0092B202EBC80241F8126028461A464146D8
:1031FC00FFF7A2FF002F45D12368064423F4415367
:10320C0023F030031B041B0C2360236823F480433E
:10321C0023F0700383F4405343F4004343F08003E2
:10322C009BB22360AE832AE01A48AA8BD0F8500CCC
:10323C0080B200EBC800400000F1804000F5C040B7
:10324C0002601FB10C2000FB0850876720681A44ED
:10325C0020F4E04020F030000004000C20602068D6
:10326C0020F4E04020F0400080F0200040F40040CA
:10327C0040F0800080B22060AA830029ABD002B05D
:10328C00BDE8F0810C2303FB0858C8F87C70B3E749
:10329C0000020004005000400860004048F2800129
:1032AC0010B50D4A0D4C136823F4E04323F0400392
:1032BC000B439BB21360136823F4804323F0700319
:1032CC000B439BB242F8043BA242ECD10368DB797E
:1032DC0020335B00838310BD045C0040205C004005
:1032EC0010B591BB8A420CBF202410242948D0F879
:1032FC00003C23F4E04323F04003634043F40043D9
:10330C0043F080039BB2C0F8003C890001F180417E
:10331C0001F5B8413AB90B6823F4415323F030035B
:10332C001B041B0C0B60002A0CBF4FF440524FF4D3
:10333C0080520B6823F4804323F07003534043F412
:10334C00004343F080039BB222E00B06DDD5002A3C
:10335C000CBF2022102201F07F014FEA810101F104
:10336C00804101F5B8410B6823F4E04323F040039E
:10337C0083EA020343F4004343F080039BB20B60E7
:10338C0007D10B6823F4E04323F030031B041B0C20
:10339C000B6010BD005000400B060ED501F07F01F4
:1033AC00890001F1804101F5B841086800F0300056
:1033BC00102814BF002001207047890001F18041C2
:1033CC0001F5B841086800F44050B0F5805FF0E7B3
:1033DC000B0614D40C4B5A54890001F1804101F5B1
:1033EC00B8410B6823F4804323F0700342B183F49B
:1033FC00005343F4004343F080039BB20B607047CF
:10340C0083F44053F5E700BFD40900202DE9F041C7
:10341C000F4607F07F07BD0005F1804505F5B8455F
:10342C001E462B68114603F03003302B2CD0DFF8EE
:10343C005C803246D8F8504CA4B204EBC70464004C
:10344C0004F1804404F5C0442088400000F1804021
:10345C0000F5C040FFF720FED8F8501C0C4B89B289
:10346C0001EBC70143F81160296821F4E04121F018
:10347C00400181F0300141F4004141F0800189B2FA
:10348C0029603046BDE8F0810026FAE70050004084
:10349C000460004070B58D0005F1804505F5B84518
:1034AC001C462B680E4603F44053B3F5405F1046A0
:1034BC003FD02149214AD1F8503C9BB203EBC603C3
:1034CC0052F81330C3F30903A34208DAD1F8503C85
:1034DC009BB203EBC60332F81340C4F30904164B3A
:1034EC00174AD3F8503C9BB203EBC60332F81310C7
:1034FC002246490001F1804101F5C041FFF7D9FD99
:10350C0040F60F732A68134043F080032B600D4B79
:10351C009B5D63B9296821F4804121F0700181F42D
:10352C00405141F4004141F0800189B229602046AC
:10353C0070BD0024FBE700BF005000400C60004051
:10354C0008600040D4090020F8B5394B0546D3F883
:10355C00446C770509D54FF6FF32C3F8442C402351
:10356C008383BDE8F840FFF7A4B834041ED506F0F9
:10357C000F07BC0004F1804416F0100204F5B844A7
:10358C003DD02368190542D500F134020823394691
:10359C00FFF780FF022207EB470313441E3355F855
:1035AC002330002B35D0394628469847320507D5AD
:1035BC004FF2FF721E4BC3F8442C6B6A03B1984751
:1035CC00F30407D54EF6FF72194BC3F8442CAB6AC3
:1035DC0003B1984716F4007F154C06D04FF6FF52F6
:1035EC00EB6AC4F8442CE3B19847EB6ACBB1104AB0
:1035FC00D2F8403C43F40073C2F8403CF8BD40F6AE
:10360C000F7321680B4043F400432360C3E701228E
:10361C00C1E740F60F732268134043F08003236028
:10362C00C4E7D4F8403C23F40073C4F8403CE5E70D
:10363C0000500040032A11D8002A3BD0013A431E07
:10364C000139024401E09A4234D013F8010F11F809
:10365C0001CF6045F7D0A0EB0C00704710B541EAE4
:10366C000004A40784460B460FD0013A431E0139CF
:10367C00024401E09A421BD013F8010F11F801CF5C
:10368C006045F7D0A0EB0C0010BDDCF80040D3F87F
:10369C0000E0194674456046E7D1043A032A03F169
:1036AC0004030CF1040CF0D860461946002ADCD156
:1036BC00002010BD0020704730B5840786460346B5
:1036CC0006D0A2B303F8011B980702F1FF32F8D120
:1036DC00032A26D95FFA81FC0CEB0C2C0F2A0CEB7D
:1036EC000C402AD922F00F0C9C44C3E90000C3E91A
:1036FC00020010336345F8D112F00C0F02F00F05E5
:10370C0017D01A464FEA950C0CF1FF3403EB8C0CD6
:10371C0042F8040B6245FBD1043305F0030203EBC2
:10372C00840322B11A4403F8011B9A42FBD1704660
:10373C0030BD2A46002AF5D1F9E71546E1E700BF6E
:10374C008AB340EA01039B0730B504468E4618D174
:10375C00032A0BD815E0043A23D01CF0803F20D16B
:10376C00032A01F1040E00F1040422D92368DEF8C7
:10377C000050A3F10131AB4221EA030C2046714603
:10378C00E9D003780C78A3420FD1013A024406E049
:10379C006BB110F8013F11F8014FA34205D19042D3
:1037AC00F6D1002030BD10467047181B30BD1846AE
:1037BC0030BD20467146E4E738B511F0FF040CD05B
:1037CC000346002501E00546431C2146184600F03F
:1037DC0073F80028F7D1284638BD2146BDE838409B
:1037EC0000F06AB870B50F4B0F4E9E4209D01D46C3
:1037FC000024F61AB61055F8043B01349847A6423B
:10380C00F9D800F017F9094E094B9E4209D01D4614
:10381C000024F61AB61055F8043B01349847A6421A
:10382C00F9D870BDD83F0008D83F0008E03F000829
:10383C00D83F0008704700BF704700BF20F003015D
:10384C0010F00300C0F1000051F8043B00F1040C2F
:10385C004FEACC0C6FF000021CBF22FA0CF213439F
:10386C004FF0010C4CEA0C2C4CEA0C4CA3EB0C0268
:10387C0022EA030212EACC1204BF51F8043B0430D2
:10388C00F4D0C2F1000102EA0102B2FA82F2C2F1F2
:10389C001F0200EBD2007047024B13B1024800F03C
:1038AC0005B8704700000000953900080023014658
:1038BC001A46184600F07CB811F0FF01034600F0E0
:1038CC0003023AD09ABB186801EB012202EB0242C8
:1038DC0082EA000C10B51446A0F1013222EA000273
:1038EC00ACF1013020EA0C00024312F0803F0FD102
:1038FC0053F804CF8CEA040EACF10132AEF1013076
:10390C0022EA0C0220EA0E00024312F0803FEFD0B4
:10391C001A7822B934E013F8012F002A30D09142E2
:10392C00F9D12EE08A4206D001339A07CBD01A780F
:10393C00002AF7D1134618467047E2B91968A1F16D
:10394C00013222EA010212F0803F08D153F8041F21
:10395C00A1F1013222EA010212F0803FF6D01A786E
:10396C00002AE8D013F8012F002AFBD11846704723
:10397C0001339907E2D01A78002AF9D1184670471A
:10398C001346184610BD00BF38B5074D074C2C1B0D
:10399C00A41005D0013C55F8043D9847002CF9D1F2
:1039AC00BDE8384000F04CB8E43F0008E03F0008A8
:1039BC00F0B51D4C83B00546206816461F46019194
:1039CC00FFF738FF194A0199136823B35A68206826
:1039DC001F2A23DC4DB9541C02325C6043F82210C0
:1039EC00FFF72AFF002003B0F0BD012403EB820E89
:1039FC00CEF88860D3F888C194404CEA040C022DB0
:103A0C00C3F888C1CEF80871E5D1D3F88C512543A1
:103A1C00C3F88C51DFE7064B1360D7E7FFF70CFFB9
:103A2C004FF0FF30DFE700BF90000020E0090020DE
:103A3C00E4090020F8B500BFF8BC08BC9E467047EE
:0C3A4C00F8B500BFF8BC08BC9E467047EF
:103A5800436F6D6D616E64733A0D0A0020207072B9
:103A6800696E74226D657373616765220D0A0000C3
:103A7800202070617573650D0A00000020207265B2
:103A880073756D650D0A00002020737065656422EA
:103A98006D73220D0A0000002020696E74656E7334
:103AA80069747922302E2E3135220D0A000000006B
:103AB800202072756E20736E616B650D0A00000020
:103AC800202072756E206C696E650D0A000000007A
:103AD800202068656C700D0A00000000536E616B51
:103AE80065206B6579733A0D0A0000002020572085
:103AF800412053204420206D6F76650D0A00000098
:103B080020205020202020202020207061757365FF
:103B18002F726573756D650D0A0000002020522014
:103B280020202020202020726573746172740D0A91
:103B3800000000002020512020202020202020717B
:103B480075697420746F2072756E6E696E67206C6B
:103B5800696E652000000000287061757365642037
:103B68006F6E6C79290D0A004F4B207072696E7464
:103B78000D0A00004F4B207061757365640D0A00D3
:103B88004F4B20726573756D65640D0A0000000067
:103B98004F4B2073706565640D0A00004F4B206918
:103BA8006E74656E736974790D0A00004F4B20734B
:103BB8006E616B650D0A00004F4B206C696E650DD8
:103BC8000A00000045525220756E6B6E6F776E20AA
:103BD800636F6D6D616E640D0A000000426F72695B
:103BE80061204C616200000052756E6E696E67203C
:103BF8004C696E652055534220434443202B205383
:103C08006E616B6500000000524C303033000000DC
:103C18007061757365000000726573756D650000ED
:103C280068656C700000000072756E20736E616BC1
:103C38006500000072756E206C696E6500000000FA
:103C48007072696E742200007370656564220000EA
:103C5800696E74656E736974792200000D0A00003C
:103C680012010002020000408304405700020102D2
:103C780003010000070583031000FF000000000097
:103C880000000000070501024000010000000000DC
:103C9800000000070582024000010000000000004B
:103CA800000000000524001001052401000104247F
:103CB80002000524060001000904000001020201B7
:103CC800007C3C0008AC3C00081300000000000029
:103CD80009040100020A0000008C3C0008000000F2
:103CE80000000000000000000000000001000000CB
:103CF80000000000C03C00080000000001000000B7
:103D080000000000D83C0008090200000201008001
:103D180032F03C0008000000000000000000005ED7
:103D28000000000E000E00147F147F14042A7F2A5E
:103D3800100016083400364936400000000E000016
:103D4800003C42000000423C000054383854001047
:103D5800107C10100080602000101010100000402F
:103D6800E040006010080600003C423C0000447E31
:103D780040006452524C00224A4E320018147E1001
:103D8800002E4A4A32003C4A4A300002621A0600B3
:103D9800344A4A34000C52523C00006C6C0000005B
:103DA800806C2C0000182442002828282800004293
:103DB8002418000004520C003C4299A51E7C1212E3
:103DC8007C007E4A4A34003C424224007E42423C07
:103DD800007E4A4A42007E0A0A02003C42523400EF
:103DE8007E08087E0000427E420020423E02007E9D
:103DF800083442007E404040007E0C0C7E007E0C61
:103E0800387E003C42423C007E12120C003C52625A
:103E1800BC007E12126C00244A52240000027E026A
:103E2800003E40403E001E60601E007E30307E0036
:103E38006618186600060870080662524A460000AE
:103E48007E42420006081060000042427E000004E4
:103E5800020400808080800000020400003048488E
:103E680078007E4848300000304848003048487E96
:103E7800003068581000107C12040010A8A87000C8
:103E88007E0808700000487A40000040807A007E72
:103E98001010680000427E400078087008707808AA
:103EA8000870003048483000F828281000102828EA
:103EB800F80078100810000050582800083E4820E4
:103EC80000384040780000384038003840304038EA
:103ED800483030480058A0A0780048685848000882
:103EE8002A55410000007E000041552A08000402BE
:103EF80004020000040100040002020000000000A7
:103F08000000000000A24A040051250200A24A0451
:103F18000701000400020201000000000000000088
:103F280000A24A040051250200A24A040701000425
:103F380000020204010406000000000000A24A0476
:103F48000051250200A24A040101000000000000FF
:103F5800000000000000000000366E0100366E010F
:103F680000366E0107010004000302000000000093
:103F78000000000000A24A040051250200A24A04E1
:103F8800DF60DDD88945C74C9CD2659D9E648A9FB9
:103F9800753000083531000889310008A932000859
:103FA800ED320008DD330008A53300081934000895
:103FB800A13400085535000800000000000000008A
:083FC8000000000000000000F1
:083FD0003CC1FF7F010000006D
:083FD800A53800081D040008D3
:043FE000F5030008DD
:103FE40000C2010000000800E43B0008F03B0008A8
:103FF400103C00085A00000048656C6C6F204B614F
:1040040074652100000000000000000000000000B2
:10401400000000000000000000000000000000009C
:10402400000000000000000000000000000000008C
:10403400000000000000000000000000000000007C
:10404400000000000000000000000000000000006C
:104054000000000000000000030300007856341242
:104064007856341200127A0000127A0000127A0094
:04407400DC09002043
:040000050800225974
:00000001FF
